:1000000012C019C018C017C016C015C014C013C044
:1000100012C011C010C00FC00EC00DC00CC00BC06C
:100020000AC009C008C011241FBECFE5D4E0DEBF5E
:10003000CDBF14D076C0E4CF86E085BB089589E0BB
:1000400085BB08958AE085BB089582E085BB08954D
:1000500088E085BB089585E085BB089517BA11BA7D
:100060008FEF84BB40E081E090E0F6E0E9E062E001
:1000700058E07AE003C042E080E090E030B3307CAA
:1000800026B32770332319F481E090E005C0303C9B
:1000900021F181309105F9F4223011F475BB0BC0C8
:1000A000263011F0243011F465BB05C0233011F067
:1000B000213009F455BB303811F441E0DFCF303442
:1000C00071F12223D9F6413011F4E5BBD7CF42308C
:1000D000A9F6F5BBD3CF009789F6253011F475BB8F
:1000E0000BC0213011F0233011F465BB05C0243062
:1000F00011F0263009F455BB303809F4BCCF303448
:1001000011F441E0B9CF273009F0B6CF413011F4F6
:10011000E5BBB2CF423009F0AFCFF5BBADCF42E087
:06012000ADCFF894FFCF03
:00000001FF
